:020000040000FA
:100000000C9463010C9494010C9494010C9494014D
:100010000C9494010C9494010C9494010C9494010C
:100020000C9494010C9494010C9494010C949401FC
:100030000C9494010C9494010C9494010C949401EC
:100040000C9494010C9494010C9494010C949401DC
:100050000C9494010C9494010C9494010C94031945
:100060000C9494010C9477190C944D190C949401F0
:100070000C9494010C9494010C9494010C949401AC
:100080000C9494010C9494010C9494010C9494019C
:100090000C9494010C9494010C9494010C94AD195B
:1000A0000C9494010C9494010C9494010C9494017C
:1000B0000C9494010C9494010C9494010C9494016C
:1000C0000C9494010C9494010C9494010C9494015C
:1000D0000C9494010C9494010C9494010C9494014C
:1000E0000C9494010C94F4010C9444030C940C03B0
:1000F0000C94501E0C94B5060C9429110C9471109C
:100100000C945E060C94FE010C9402020C946B0E8F
:100110000C9496010C94DC100C94E4060C94E7010A
:100120000C94E3010C9488060C94DF010C940602F5
:100130000C9484140C94AE020C941E020C940C11BA
:100140000C9468120C9410020C941A020C94FE0287
:100150000C94D3100C94EB010C9424160C9481068F
:100160000C94C8010C946E060C945F060C94DB0290
:100170000C9491030C94EE010C94CE040C94F801B1
:100180000C94EA020C945E120C9497010C946D1678
:100190000C940C020C94CB1B0C94FC100C94D210FD
:1001A0000C9414020C94CD010C94A4147C3C3E5E7F
:1001B0002B3D3F2F5B5D3B2C2A225C000000210081
:1001C000240027002A002D00300033000101000028
:1001D000040107010A0100002200250028002B006D
:1001E0002E003100340002010000050108010B015E
:1001F00005050505070508080808020202020A0AA3
:1002000008080404040401010101010101010303C0
:10021000030303030303040707070C0C0C0C0C0C6B
:100220000C0C0202020206060606060606060B0B68
:100230000B0B0B0B0B0B01021020200808102040A9
:10024000102040800201020108040201010204089A
:100250001020408080402010080402018004020128
:100260008040201008040201080402010102040871
:1002700010204080010204081020408000000A0B7A
:1002800002090C0D0E080703040100000000000025
:10029000000000000000000000000000000000005E
:1002A000000000000000000012111000000000001B
:1002B000000000000000000000000000000000003E
:1002C0000000CB1B501E11241FBECFEFD1E2DEBFBA
:1002D000CDBF00E00CBF13E0A0E0B2E0E4E2F2E446
:1002E00000E00BBF02C007900D92A630B107D9F70E
:1002F00027E0A6E0B3E001C01D92AD32B207E1F7FE
:1003000011E0C2E6D1E000E006C021970109802F8C
:10031000FE010E94891FC136D10780E00807A9F7B6
:100320000E94541C0C9400210C9400000895089520
:10033000282F30E0F901E458FD4F9491F901EA5C6F
:10034000FD4F449120513E4FF9012491222309F49D
:1003500035C0992311F191509231F8F4E92FF0E072
:100360008827EA54FE4F8F4F0C94891FE701EB0159
:10037000C801DF01E301CD01EE01F401F801FE0146
:10038000020206020C021002CD0114021A021E0221
:10039000809180008F7780938000E22FF0E0EE0F55
:1003A000FF1FEA52FE4FA591B4918FB7F894EC91DC
:1003B000611148C040954E234C938FBF08958091A2
:1003C00080008F7DE8CF80918000877FE4CF84B567
:1003D0008F7784BDE2CF84B58F7DFBCF8091B00055
:1003E0008F778093B000D9CF8091B0008F7DF9CF07
:1003F000809190008F7780939000CFCF8091900074
:100400008F7DF9CF80919000877FF5CF8091A000FC
:100410008F778093A000C1CF8091A0008F7DF9CF0E
:100420008091A000877FF5CF809120018F77809306
:100430002001B3CF809120018F7DF9CF80912001E1
:10044000877FF5CF4E2BB8CFCF93DF9390E0FC01A1
:10045000EA5CFD4F249180519E4FFC0184918823DA
:10046000D1F090E0880F991FFC01E454FE4FA59154
:10047000B491FC01EA52FE4FC591D49161110EC0B6
:100480009FB7F8948C91E22FE0958E238C9328816E
:10049000E223E8839FBFDF91CF9108958FB7F8944F
:1004A000EC91E22BEC938FBFF6CF863308F08653A6
:1004B00020917B00982F9870277F922B90937B0040
:1004C0008770806480937C0080917A008064809340
:1004D0007A0080917A0086FDFCCF8091780090911F
:1004E000790008958230910538F0880F991F880FA0
:1004F000991F05970197F1F708953FB7F8948091F8
:10050000860390918703A0918803B091890326B553
:10051000A89B05C02F3F19F00196A11DB11D3FBF3B
:10052000BA2FA92F982F8827BC01CD01620F711D0A
:10053000811D911D42E0660F771F881F991F4A9504
:10054000D1F708952FB7F8946091820370918303D7
:1005500080918403909185032FBF0895AF92BF923D
:10056000CF92DF92EF92FF920F931F93CF93DF937F
:100570006C017B018B01040F151FEB015E01AE18AE
:10058000BF08C017D10759F06991D601ED91FC91D0
:100590000190F081E02DC6011995892B79F7C501ED
:1005A000DF91CF911F910F91FF90EF90DF90CF904F
:1005B000BF90AF900895FC01538D448D252F30E0FE
:1005C000842F90E0821B930B541710F0CF96089560
:1005D00001970895FC01918D828D981761F0A28D8D
:1005E000AE0FBF2FB11D5D968C91928D9F5F9F7353
:1005F000928F90E008958FEF9FEF0895FC01918D09
:10060000828D981731F0828DE80FF11D858D90E075
:1006100008958FEF9FEF0895FC01918D228D892F12
:1006200090E0805C9F4F821B91098F7399270895FA
:1006300082E096E00E940C0321E0892B09F420E07F
:10064000822F0895FC01A48DA80FB92FB11DA35AC4
:10065000BF4F2C91848D90E001968F739927848FE2
:10066000A689B7892C93A089B1898C918370806405
:100670008C93938D848D981306C00288F389E02DA6
:1006800080818F7D80830895EF92FF920F931F9357
:10069000CF93DF93EC0181E0888F9B8D8C8D981335
:1006A0001AC0E889F989808185FF15C09FB7F89441
:1006B000EE89FF896083E889F9898081837080648D
:1006C00080839FBF81E090E0DF91CF911F910F91D8
:1006D000FF90EF900895F62E0B8D10E00F5F1F4FE7
:1006E0000F731127E02E8C8D8E110CC00FB607FCF6
:1006F000FACFE889F989808185FFF5CFCE010E9484
:100700002203F1CFEB8DEC0FFD2FF11DE35AFF4FCC
:10071000F0829FB7F8940B8FEA89FB898081806211
:10072000CFCFCF93DF93EC01888D8823B9F0AA89CE
:10073000BB89E889F9898C9185FD03C0808186FD9C
:100740000DC00FB607FCF7CF8C9185FFF2CF8081EB
:1007500085FFEDCFCE010E942203E9CFDF91CF913B
:10076000089580E090E0892B29F00E941803811100
:100770000E94000080E090E0892B49F080E090E04A
:10078000892B29F00E94000081110E94000080E066
:1007900090E0892B49F080E090E0892B29F00E94BD
:1007A000000081110E94000080E090E0892B49F058
:1007B00080E090E0892B29F00E94000081110C94C8
:1007C00000000895CF93CFB7F89480915003811122
:1007D00027C0E5E2F2E08491EBE6F2E09491E82FA5
:1007E000F0E0EE0FFF1FE454FE4FA591B491EC91A1
:1007F000E92321F461E085E30E94980161E085E34B
:100800000E9424028CB580618CBD8CB580648CBD47
:1008100061E084E30E94240261E083E30E942402F9
:10082000809150038F5F80935003CFBFCF91089585
:10083000AF92BF92CF92DF92EF92FF920F931F93EE
:10084000CF93DF93EC0188819981892B89F06EBD6C
:100850000DB407FEFDCFBEB48B2DDF91CF911F915C
:100860000F91FF90EF90DF90CF90BF90AF900895E1
:100870008885998511E0892B09F010E8AA24A394B2
:10088000862F812309F0A12C062F2C813D814E81DA
:100890005F8160E271EA87E090E00E94671FF22EBC
:1008A000B02EE12CC22ED12CFF2019F0C6010E94DF
:1008B00072028A85877F09F042C08D858F3F89F05B
:1008C000902F912381E009F480E08A1551F0EF85A3
:1008D000F8898F89992369F19081892B8083AA24D3
:1008E000A394E989FA898081998D892B8083FF20DF
:1008F00019F0C6010E9472028E858F3F39F0EB8994
:10090000FC898081988D892309F0E12AE989FA8997
:100910009081898D8095892380838E858F3F09F012
:10092000BE2C88859985892BB9F5110F1111BCCF83
:1009300093CF9081809589238083A12CD2CFE989A0
:10094000FA898081998D892B8083FF2019F0C60157
:100950000E9472028D858F3F49F0EF85F8898F895B
:10096000902F9123A9F09081892B8083E989FA89BE
:100970009081898D8095892380838E858F3F69F250
:10098000EB89FC898081988D892339F2E12AC5CFD2
:10099000908180958923E9CF1695C8CF089520913D
:1009A0002D03260F3327331F21323105ECF420911C
:1009B000D805FC0190E080E0243069F082E00895E1
:1009C000A0912D032191AC01435F5C4FA40FB52F83
:1009D000B11D2C930196861798F380912D03680F13
:1009E00060932D0380E0089581E008951092D8056A
:1009F00081E08093D7051092B20561E084E10E9406
:100A0000980161E085E10E949801E9EBF0E08081C6
:100A10008E7F808380818D7F808388E48093B8007F
:100A200085E48093BC000895CF93DF9391E0909389
:100A30000C038823B9F0C091B800D091BA0080911E
:100A4000BC008A7B8093BC0060E084E10E94980136
:100A500060E085E10E9498010E94F604D093BA00FC
:100A6000C093B800DF91CF9108958F929F92AF927B
:100A7000BF92CF92DF92EF92FF920F931F93CF938B
:100A8000DF93D0910106D13208F0D7C0182FC09162
:100A900000060E947D026B017C018091D8058111C6
:100AA0006BC082E08093D8051093D7058FEF8093B9
:100AB000D6051092D505D093D405A0EEB5E0E4EBB1
:100AC000F5E080E0D81391C01092B3058091B30592
:100AD000CC0FC82BC093B3058091B205813009F0CB
:100AE00088C01092B2050E947D026B017C0180914A
:100AF000B3058093BB008091DA059091DB05A0914E
:100B0000DC05B091DD05892B8A2B8B2BA1F00E948F
:100B10007D020091DA051091DB052091DC05309112
:100B2000DD056C197D098E099F090617170728072F
:100B3000390708F442C08091BC0083FDD8CF85EC12
:100B40008093BC000E947D026B017C018091D805DE
:100B5000823009F450C08091D6058F3F09F46FC0F0
:100B60008091D605803209F46CC08091D60580331F
:100B700009F469C084E026C08091DA059091DB0514
:100B8000A091DC05B091DD05892B8A2B8B2B09F414
:100B900084CF0E947D028090DA059090DB05A090C2
:100BA000DC05B090DD056C197D098E099F0986165C
:100BB0009706A806B90608F070CF8091D9050E9463
:100BC000140585E01092DF05109201061092DE05F3
:100BD000DF91CF911F910F91FF90EF90DF90CF9019
:100BE000BF90AF909F908F9008959D9191938F5F4C
:100BF00069CF85EEA5CF8091DA059091DB05A091B4
:100C0000DC05B091DD05892B8A2B8B2B09F49ECF57
:100C10000E947D020091DA051091DB052091DC0530
:100C20003091DD056C197D098E099F09061717079C
:100C30002807390708F08ACFC0CF81E0C3CF80E012
:100C4000C1CF82E0BFCF83E0BDCFCF93DF93EC0174
:100C50008B818823A1F0888191E09093DE058093B9
:100C600000061092DF051092010681E00E94350512
:100C700091E0811190E0892FDF91CF91089510923A
:100C80009105109290051092DF05109201060E94C6
:100C9000F60486E991E090938D0580938C0587E9B1
:100CA00091E090938F0580938E0581E08B83CE0138
:100CB0000E942506982F8111CECFDDCF0895E091B7
:100CC000910580919005E81730F4F0E0EE56FA4F68
:100CD000808190E008958FEF9FEF089590919105A6
:100CE000809190052FEF3FEF981748F4E92FF0E03F
:100CF000EE56FA4F208130E09F5F90939105C90135
:100D000008958091900590919105891B990B089504
:100D1000CF92DF92EF92FF920F931F93CF93DF93C7
:100D20007C01CB018A012091DE05222389F0EB01B1
:100D30006B01C40ED51ECC15DD0569F06991D70194
:100D4000ED91FC910190F081E02DC7011995F3CF51
:100D5000642F0E94CF04C801DF91CF911F910F91A2
:100D6000FF90EF90DF90CF900895CF93DF931F9285
:100D7000CDB7DEB769832091DE052223F9F02091FB
:100D80000106203258F021E030E0FC013383228359
:100D900090E080E00F90DF91CF9108958091DF0582
:100DA000E82FF0E0E052FA4F998190838F5F8093B3
:100DB000DF058093010681E090E0ECCF61E0CE0199
:100DC00001960E94CF04F7CF90E080E00895089547
:100DD000FC0183858F3F19F061E00C949801089520
:100DE00061E0FC0184810E949801809106038111D9
:100DF0001092060308958EBD00000DB407FEFDCFCE
:100E00008EB508958FEF0C94FB060F931F93CF932D
:100E1000DF93EC010E94A2028B010E9402078F3F28
:100E200069F00E94A202601B710B6C177D07A8F38A
:100E300080E0DF91CF911F910F91089581E0F9CF6C
:100E40008CBD9DBD0895CF93DF93EC01888199817E
:100E5000892B31F0EA81FB81808191810E942007FA
:100E60008B858F3F29F060E0DF91CF910C94980142
:100E7000DF91CF910895CF92DF92EF92FF920F937F
:100E80001F93CF93DF93EC016B018A0179010E94DC
:100E90002307F6016081CE010E9418046FEFCE0196
:100EA0000E941804F8018083EA94EF2831F06FEF74
:100EB000CE010E941804F8018183CE010E94E80649
:100EC00081E0DF91CF911F910F91FF90EF90DF9024
:100ED000CF900895CF93DF93EC01809106038111A9
:100EE00009C081E0809306038091AB069091AC0627
:100EF0000E94200760E08C81DF91CF910C949801D3
:100F00008F929F92AF92BF92FF920F931F93CF93B6
:100F1000DF93EC01F62E49015A018E81882389F076
:100F20008F8198859C012F5F3F4F38872F838230B8
:100F3000924018F40E940207F3CFCE010E94F006FF
:100F40001E82CE010E946A078CE291E00E94050792
:100F50008F2D80640E94FB0608E110E0D501C401DA
:100F6000002E04C0B695A795979587950A94D2F759
:100F70000E94FB0608501109083F8FEF180771F710
:100F800085E9FF2021F028E087E8F2128FEF0E9428
:100F9000FB0610E00E9402078A8787FF04C01F3FFC
:100FA00011F01F5FF7CFDF91CF911F910F91FF904D
:100FB000BF90AF909F908F900895AF92BF92CF92C5
:100FC000DF92EF92FF920F931F93CF93DF93EC0189
:100FD0006901C801820F931F8130924050F58E81C4
:100FE000882379F088819981AA81BB81841795072C
:100FF000A607B70731F48F819885C816D90608F07F
:1010000042C0488359836A837B838B85833039F060
:1010100089E0440F551F661F771F8A95D1F79A0103
:10102000AB0161E1CE010E948007882389F083E053
:101030008D83CE010E94F00680E0DF91CF911F9159
:101040000F91FF90EF90DF90CF90BF90AF900895F9
:101050000E94A2025B010E9402078A878F3F69F407
:101060000E94A2026A197B096D327140A0F38FE0E1
:101070008D83CE010E94F006DCCF8E3F89F4188666
:101080001F8281E08E838F8198858C159D0550F499
:101090000E9402078F819885019698878F83F3CFEE
:1010A0008DE0E6CF6701E00EF11E0E940207F60117
:1010B00081936F01EE15FF05C1F78F819885080FA9
:1010C000191F18870F838985882319F0011512408D
:1010D000A0F08E81882389F08F8198859C012F5FF5
:1010E0003F4F38872F838230924018F40E940207C6
:1010F000F3CFCE010E94F0061E8281E09ECFCF92F8
:10110000DF92EF92FF920F93CF93DF93EC0169018F
:1011100082E1411551056105710599F08B85833098
:1011200039F089E0440F551F661F771F8A95D1F764
:101130009A01AB0168E1CE010E948007882319F073
:1011400084E08D832DC08EEF0E94FB0676018EEF2A
:10115000D81AF70181917F010E94FB06EC14FD046F
:10116000C1F78FEF0E94FB068FEF0E94FB060E94E3
:1011700002078A878F71853071F4011116C0CE0184
:101180000E94F00681E0DF91CF910F91FF90EF90E8
:10119000DF90CF90089581E18D83CE010E94F0060B
:1011A000CE010E94F00680E0EECF88E592E00E943A
:1011B0000507811102C085E1C4CF20E030E0A9011C
:1011C0006DE0CE010E948007882311F084E1B9CF41
:1011D0000E9402078111FACFD2CF0F9340910803EA
:1011E0005091090360910A0370910B034115510559
:1011F0006105710599F0082F2AE833E080918A058E
:1012000090918B050E947F08882349F01092080373
:101210001092090310920A0310920B0381E00F91C0
:1012200008950F93CF93C82F80910703811105C0B4
:10123000C1E08C2FCF910F91089540910002509101
:10124000010260910202709103020C2F2AE833E040
:1012500080918A0590918B050E947F08811102C0C0
:10126000C0E0E7CFCC2321F381E00E94ED08882382
:10127000B9F310920703DDCF8F929F92AF92BF9286
:10128000EF92FF920F931F93CF934B015C01C42FFA
:101290008091000290910102A0910202B09103029C
:1012A00088159905AA05BB0551F181E00E94110935
:1012B00081110BC080E0CF911F910F91FF90EF90B3
:1012C000BF90AF909F908F9008958AE8E82E83E0BA
:1012D000F82E00E012E030E020E0B501A40180919A
:1012E0008A0590918B050E94DD07882319F380926F
:1012F000000290920102A0920202B0920302409179
:1013000007034C2B4093070381E0D5CF8F929F9228
:10131000AF92BF92CF92DF92EF92FF92CF932DEADE
:1013200036E030938B0520938A05882309F46DC03D
:1013300040E060E070E0CB010E943C0981110BC0ED
:1013400080E0CF91FF90EF90DF90CF90BF90AF9073
:101350009F908F900895809148058F7789F78091AD
:10136000540590915505A0915605B09157058436C6
:101370009105A105B10520F3C0905005D09051050D
:10138000E0905205F0905305C114D104E104F1043A
:10139000B9F240E0C701B6010E943C09882381F2FE
:1013A00080919503909196038115924049F6A09102
:1013B0009A03AA2329F26091980370919903611509
:1013C000710509F4BDCF20919703222309F4B8CF0A
:1013D000A093CB062093BD0690E080E030E0E1E0F2
:1013E000F0E0C82FAF01082E02C0440F551F0A9429
:1013F000E2F72417350769F041E0480F019689307C
:10140000910579F74093C6069BCFC12CD12C76016C
:10141000C0CF8093C6062091A0033091A10350E075
:1014200040E02115310541F42091AE033091AF0326
:101430004091B0035091B1032093BE063093BF0694
:101440004093C0065093C10646015701860E971E71
:10145000A11CB11C8092CC069092CD06A092CE0623
:10146000B092CF06E0919B03F0919C03F093D206DB
:10147000E093D106B0E00E94911FDC01CB01880D02
:10148000991DAA1DBB1D8093D3069093D406A093EB
:10149000D506B093D60625E0EE0FFF1F2A95E1F79B
:1014A000E150FE4FEF2FFF27E6958E0F9F1FA11DE6
:1014B000B11D8093C7069093C806A093C906B09348
:1014C000CA0680909D0390909E03B12CA12C81149C
:1014D000910441F48090AA039090AB03A090AC03D8
:1014E000B090AD03C81AD90AEA0AFB0AC80CD91C85
:1014F000EA1CFB1C04C0F694E794D794C794CA95E1
:10150000D2F7C092C206D092C306E092C406F0920F
:10151000C50685EFC8168FE0D806E104F10428F46B
:101520008CE08093D00681E00CCF80E125EFC216DD
:101530002FEFD206E104F104A0F38091B60390915D
:10154000B703A091B803B091B9038093D3069093E9
:10155000D406A093D506B093D60680E2E2CF4F9290
:101560005F926F927F928F929F92AF92BF92CF9233
:10157000DF92EF92FF920F931F93CF93DF93EC01D3
:10158000423051056105710590F480E0DF91CF9103
:101590001F910F91FF90EF90DF90CF90BF90AF9091
:1015A0009F908F907F906F905F904F900895898566
:1015B0009A85AB85BC850196A11DB11D8417950741
:1015C000A607B70710F3CB88DC88ED88FE888F89E3
:1015D000803109F042C0BB27A72F962F852F4801E5
:1015E00059012A013B01C80ED91EEA1EFB1E80913B
:1015F000000290910102A0910202B0910302C8166C
:10160000D906EA06FB0699F58F898031C1F5B30149
:10161000A201552766277727440F551F46575C4F71
:10162000FA01918280828091070381608093070391
:101630008A89823080F08D819E81AF81B8858C0D42
:101640009D1DAE1DBF1D8093080390930903A093B9
:101650000A03B0930B0381E099CFDB01CA01E7E0F5
:10166000B695A79597958795EA95D1F7B8CF40E0BD
:10167000C701B6010E943C098111C6CF86CFB301D4
:10168000A2014F77552766277727440F551F440F30
:10169000551F46575C4FFA0180829182A282B38225
:1016A000C2CF8F929F92AF92BF92CF92DF92EF9272
:1016B000FF920F931F93CF93DF93FC018185928557
:1016C000A385B4850196A11DB11D84179507A607B2
:1016D000B70770F480E0DF91CF911F910F91FF90D9
:1016E000EF90DF90CF90BF90AF909F908F90089534
:1016F00083889488A588B6888789803189F5BB2737
:10170000A72F962F852FE9016A017B018F01BC016C
:10171000CD01680D791D8A1D9B1D8090000290905F
:101720000102A0900202B090030286169706A80656
:10173000B90601F5F8018789803111F5DD24EE2421
:10174000FF24F601EE0FFF1FE657FC4F80819181C9
:10175000B0E0A0E088839983AA83BB8381E0BBCFFC
:10176000DB01CA01C7E0B695A79597958795CA95FD
:10177000D1F7C9CF40E00E943C098111DBCFAACF4D
:10178000E894C7F8DD24EE24FF24F601EE0FFF1FD6
:10179000EE0FFF1FE657FC4F80819181A281B3813C
:1017A000BF70D8CF4F925F926F927F92AF92BF92ED
:1017B000CF92DF92EF92FF920F931F93CF93DF931D
:1017C00000D01F92CDB7DEB78C0149835A836B835B
:1017D0007C835901C12CD12C7601412C82E0582EFA
:1017E000612C712C49815A816B817C819E012F5F14
:1017F0003F4FC8010E94510B882339F1F8018585BC
:10180000A301920104C0220F331F441F551F8A9564
:10181000D2F7DA01C901C80ED91EEA1EFB1E4981A2
:101820005A816B817C818789803111F188EF9FEF2C
:10183000AFEFBFE0481759076A077B0798F2F50139
:10184000C082D182E282F38281E00F900F900F90EC
:101850000F90DF91CF911F910F91FF90EF90DF904C
:10186000CF90BF90AF907F906F905F904F90089512
:1018700088EF9FEFA0E0B0E0DDCFCF93DF93FC01D6
:101880002581222321F080E0DF91CF910895EC01A2
:101890008091D006803159F582E08583178A108EB9
:1018A000118E128E8091D1069091D206B0E0A0E008
:1018B00025E0880F991FAA1FBB1F2A95D1F7838B9C
:1018C000948BA58BB68B89EB96E09C8F8B8F81E0F8
:1018D0008C831E821F82188619861A861B861C8698
:1018E0001D861E861F86188A198A1A8ACDCF8032D5
:1018F00051F683E085834091D3065091D4066091E0
:10190000D5067091D606478B508F618F728F9F01DD
:101910002D5E3F4F89EB96E00E94D20B8111D3CF11
:10192000B2CF8F929F92AF92BF92CF92DF92EF92FF
:10193000FF920F931F93CF93DF93EC018D81811161
:101940000EC080E0DF91CF911F910F91FF90EF903B
:10195000DF90CF90BF90AF909F908F9008950B89AC
:101960001C892D893E89041715072607370748F378
:101970004A015B01823031F48A869B86AC86BD8643
:1019800081E0E0CF81149104A104B10449F41E82E6
:101990001F82188619861A861B861C861D86F0CF24
:1019A0000A851B852C853D85EB8DFC8D858590E01A
:1019B0000996B901A8014150510961097109082E20
:1019C00004C076956795579547950A94D2F77501A7
:1019D0006401E1E0CE1AD108E108F10804C0F694F0
:1019E000E794D794C7948A95D2F7C416D506E6062D
:1019F000F70620F0012B022B032B11F58F89988D10
:101A0000A98DBA8D8E839F83A887B9878E010A5FBF
:101A10001F4FC114D104E104F10409F4ADCF4E818C
:101A20005F816885798598018B8D9C8D0E94510B13
:101A300091E0C91AD108E108F1088111EACF81CFFC
:101A4000C41AD50AE60AF70AE1CF3F924F925F9295
:101A50006F927F928F929F92AF92BF92CF92DF92BE
:101A6000EF92FF920F931F93CF93DF93CDB7DEB723
:101A70002C970FB6F894DEBF0FBECDBF5C01DC0122
:101A80005B968D909C905C9716964D905D906D90B6
:101A90007C901997411451046104710409F468C0E1
:101AA000BFEF4B1A5B0A6B0A7B0A312CF40181856C
:101AB0009285A385B4859C01AD012F5F3F4F4F4FA9
:101AC0005F4F29873A874B875C87730162011D82CC
:101AD0001E821F821886F40181859285A385B485B4
:101AE0002D813E814F815885281739074A075B07AA
:101AF00008F056C089859A85AB85BC858C159D05F7
:101B0000AE05BF0550F482E0C82ED12CE12CF12C9B
:101B100092E0492E512C612C712C9E012F5F3F4F7A
:101B2000B701A601C4010E94510B8823C9F1898124
:101B30009A81AB81BC81892B8A2B8B2B09F12601E1
:101B400037019FEF491A590A690A790A2D813E81A6
:101B50004F8158852F5F3F4F4F4F5F4F2D833E83FF
:101B60004F8358873FEFC31AD30AE30AF30AB3CF70
:101B7000F40140805180628073803324339496CF87
:101B8000C414D504E604F70409F70FEF1FEF2FEF95
:101B90003FE0B701A601C4010E94AF0A811119C03C
:101BA00080E02C960FB6F894DEBF0FBECDBFDF915C
:101BB000CF911F910F91FF90EF90DF90CF90BF904A
:101BC000AF909F908F907F906F905F904F903F90DD
:101BD0000895D50116964D915D916D917C9119975F
:101BE000411551056105710539F097018601C40160
:101BF0000E94AF0A8823A1F2D5011696CD92DD92FC
:101C0000ED92FC921997332051F0D701C60101964D
:101C1000A11DB11DF40180839183A283B383F501DB
:101C20008789908DA18DB28D892B8A2B8B2B39F4CE
:101C30008481C78AD08EE18EF28E80688483F5011C
:101C400084818062848381E0ACCF1F93CF93DF9344
:101C5000FC0125812223D1F1162FEC01848187FF1D
:101C60002AC0668577858089918941E00E943C0978
:101C7000882361F1EA8980E2E89FF0011124E657A8
:101C8000FC4F309719F18D81823040F48B899C890B
:101C9000AD89BE89848F958FA68FB78F8F89988DD8
:101CA000938F828F8F89988DA98DBA8DB58BA48BD8
:101CB0008C818F778C83111103C08C818F7E8C83F4
:101CC000812FDF91CF911F910C94110980E0DF915A
:101CD000CF911F910895FF920F931F93CF93DF939E
:101CE000EC018D81813041F090E080E0DF91CF9177
:101CF0001F910F91FF9008958C8181FFF5CF82FD98
:101D00001BC000918A0510918B05C8010E946A07CB
:101D10000E940207F82EC8010E94F0068FEFF81209
:101D2000E3CF8C8185FF1BC060E0CE010E94250EB1
:101D30008C818F7D8C83D8CF4B895C896D897E891E
:101D40008A859B85AC85BD8584179507A607B7074F
:101D5000C1F2CE010E94910C8111D3CFC5CF409129
:101D600008035091090360910A0370910B03452BFE
:101D7000462B472B21F080E00E94ED08B5CF806113
:101D80008C832A853B85317080E092E0821B930B27
:101D9000ADCFCF93DF93EC0161E00E94250E882345
:101DA00011F01D8281E0DF91CF9108952F923F9233
:101DB0004F925F926F927F928F929F92AF92BF925B
:101DC000CF92DF92EF92FF920F931F93CF93DF9307
:101DD00000D01F921F92CDB7DEB77C015B01342E7D
:101DE0005D83DC0115968C911597813009F0CEC08A
:101DF00014962C9021FECAC022FCB4C0C32CDD80F6
:101E000022947FE027222094B22DB1702B2ED7018F
:101E10001A964D915D916D917C911D97C114D104DD
:101E200009F428C15B968D919C915C97FC017480AC
:101E30007A948A019B0169E0369527951795079555
:101E40006A95D1F770228A011170711020C00115B6
:101E50001105E9F416964D915D916D917C9119975C
:101E6000411551056105710509F099C057968D918D
:101E70009D910D90BC91A02D0097A105B10509F091
:101E8000B0C0C7010E94250D882309F47FC080E0FF
:101E900092E0801B910B46018C159D0508F44C01C6
:101EA000D7015B964D915C915C9716968D919D91B3
:101EB0000D90BC91A02D0297A109B109FA012585C9
:101EC00004C0880F991FAA1FBB1F2A95D2F7468509
:101ED000578560897189840F951FA61FB71F9C01C4
:101EE000AD01270D311D411D511D29013A018114FC
:101EF00032E0930609F07BC08091000290910102CC
:101F0000A0910202B091030284159505A605B705BC
:101F100059F48FEF9FEFDC01809300029093010250
:101F2000A0930202B0930302022D9501B301A20116
:101F300080918A0590918B050E947F08882331F15A
:101F40009EEFB91AC818D908F70182859385A48530
:101F5000B585880D991DA11DB11D82879387A48722
:101F6000B58755CFF701438954896589768982857C
:101F70009385A485B585481759076A077B0709F437
:101F80003DCFC7010E94910C811138CF81E090E0D4
:101F9000D70113969C938E93129780E007C09E0101
:101FA0002F5F3F4F0E94510B811102C090E079C01A
:101FB00089819A81AB81BC81F701238D348DF90130
:101FC000278948EF5FEF60E070E0203121F048EFB3
:101FD0005FEF6FEF7FE084179507A607B70708F05C
:101FE00050CFF70186839783A087B18750CF011523
:101FF000110599F5D7011A964D915D916D917C91DE
:102000001D9753968D919D910D90BC91A02D4817D1
:1020100059076A077B0708F181E00E9411098823AC
:1020200009F4B4CF40920002509201026092020281
:102030007092030280910703816080930703C801B7
:1020400086579C4FD5019C01280D391DFC012E1788
:102050003F0759F04D914193FACF41E0C301B201DE
:102060000E943C098111EBCF91CF281B390BA20EA6
:10207000B31E68CFF70183899489A589B68984172F
:102080009507A607B70738F48481438B548B658B7B
:10209000768B80688483F701848183FD1AC0832D49
:1020A0009D810F900F900F900F900F90DF91CF9127
:1020B0001F910F91FF90EF90DF90CF90BF90AF9066
:1020C0009F908F907F906F905F904F903F902F9058
:1020D000089561E0C7010E94250E882309F456CFB8
:1020E000DECFCF93DF931F92CDB7DEB7698341E098
:1020F00050E0BE016F5F7F4F0E94D60E0F90DF91C0
:10210000CF910895FC01DB0112968D919C9113975C
:102110009383828382E392E09183808314968C91EF
:102120001497848315968C911597858316964D91F7
:102130005D916D917C911997468357836087718774
:102140001A964D915D916D917C911D9742875387B1
:10215000648775871E964D915D916D917C91519725
:1021600046875787608B718B52968C915297828BE2
:1021700053964D915D916D917C915697438B548B05
:10218000658B768B57964D915D916D917C915A97A9
:10219000478B508F618F728F5B968D919C91948F3E
:1021A000838F08950895FC01818D928D009719F019
:1021B00061E00C94250E0895DC015996ED91FC9197
:1021C0003097B9F083899489A589B689428553856A
:1021D00064857585841B950BA60BB70B811520E8CC
:1021E0009207A105B10538F08FEF9FE7A0E0B0E0BE
:1021F000089590E080E00895DC0159968D919C91BE
:10220000009739F0DC01ED91FC910480F581E02D1F
:10221000199490E080E00895CF93DF93EC01E98D6D
:10222000FA8D309749F481E090E09B838A8390E0B7
:1022300080E0DF91CF91089513821282898D9A8D6B
:102240000E94D60EE98DFA8D22813381232B59F716
:10225000F0CFCF93DF931F92CDB7DEB76983DC0158
:10226000ED91FC910280F381E02D41E050E0BE0150
:102270006F5F7F4F19950F90DF91CF9108952F9247
:102280003F924F925F926F927F928F929F92AF9206
:10229000BF92CF92DF92EF92FF920F931F93CF9353
:1022A000DF9300D0CDB7DEB7FC018581811118C066
:1022B0008FEF9FEF0F900F900F90DF91CF911F91B5
:1022C0000F91FF90EF90DF90CF90BF90AF909F90D5
:1022D0008F907F906F905F904F903F902F900895D8
:1022E000848180FFE5CF4389548965897689828519
:1022F0009385A485B585312C212C481759076A0789
:102300007B0719F022242394312C6F012101CE0187
:1023100001963C01DF011696BB83AA834114510448
:1023200009F4C5C0F60142855385648575854A0167
:10233000F1E09F22D6015B968D919C915C978A017A
:102340009B01E9E03695279517950795EA95D1F712
:102350001596EC91E230E9F5FC01628D738D848D68
:10236000958D600F711F821F931FA12C22E0B22E4A
:10237000A818B9084A145B0408F45201F601248134
:1023800026FD04C0A114F2E0BF0671F40091000222
:1023900010910102209102023091030206171707E3
:1023A0002807390709F05EC040E00E943C098823F5
:1023B00009F47ECFC40186579C4FD3019C012A0D9E
:1023C0003B1DFC012E173F0709F46CC041914D9352
:1023D000F9CFDC011496BC90BA94B0228114910418
:1023E00079F4B1100DC0452B462B472B69F5F6014A
:1023F0008789908DA18DB28D86839783A087B187C1
:10240000D6015B96ED91FC915C9716966D917D914E
:102410008D919C91199762507109810991092585C7
:1024200004C0660F771F881F991F2A95D2F706856B
:10243000178520893189600F711F821F931F6B0DD3
:10244000711D811D911D91CFD60116964D915D9103
:102450006D917C9119972A813B810E94510B8111CA
:10246000CFCF26CF730185019401AB01BC018091D0
:102470008A0590918B050E94DD07882309F418CF07
:102480006A0C7B1CF60182859385A485B5858A0D2F
:102490009B1DA11DB11D82879387A487B5874A180C
:1024A0005B083CCF281B390B620E731EEBCF2A94BE
:1024B000232809F0FDCE898190E0FCCEFC01818DBE
:1024C000928D009711F00C943F118FEF9FEF0895BC
:1024D0000F931F93CF93DF93EC01898D9A8D10E0BA
:1024E00000E0009799F00E943F118C010F3F100708
:1024F00069F0898D9A8DFC014285538564857585C7
:1025000041505109610971090E94910CC801DF9184
:10251000CF911F910F910895CF93DF93DC01149613
:102520002D913C912417350710F490E01EC0EA016C
:10253000FC0181819281208131E03093DE0520937E
:1025400000061092DF0510920106DC01ED91FC916E
:102550000280F381E02D1995C817D90731F781E082
:102560000E94350591E08111E0CF892FDF91CF9155
:1025700008952F923F924F925F926F927F928F9227
:102580009F92AF92BF92CF92DF92EF92FF920F9302
:102590001F93CF93DF935C011B016A01F12CE12CA7
:1025A000D50114968D919C9186010E191F098017F3
:1025B000910708F48C01F501D0810E947D022B0166
:1025C0003C018091D805811172C0C02F013208F002
:1025D000C0E2F1E0F093D80521E0C601801B910B29
:1025E000E816F90608F420E02093D7058FEF8093D2
:1025F000D6051092D5058C0F8093D405A1E0A09349
:10260000B3058091B305DD0FD82BD093B30580912E
:10261000B205813009F090C01092B2050E947D028F
:102620002B013C018091B3058093BB008091DA05BA
:102630009091DB05A091DC05B091DD05892B8A2BFB
:102640008B2BA1F00E947D022091DA053091DB05F1
:102650004091DC055091DD056419750986099709DB
:10266000261737074807590708F442C08091BC0075
:1026700083FDD8CFB5ECB093BC000E947D022B0146
:102680003C018091D805813009F45AC08091D5056C
:102690008C1710F4C091D505A4EBB5E0E2E9F5E0A4
:1026A00080E08C1751F19D9191938F5FFACF8091CB
:1026B000DA059091DB05A091DC05B091DD05892B51
:1026C0008A2B8B2B09F47DCF0E947D022091DA05A5
:1026D0003091DB054091DC055091DD0564197509E9
:1026E00086099709261737074807590708F069CF61
:1026F0008091D9050E941405C0E010929105C09305
:102700009005C017110609F057C041018E0C9F1C9F
:10271000E401CE01881999098017910798F5D50130
:1027200011968D919C91DC01ED91FC910284F385D1
:10273000E02D19958993EDCFE5EEE093BC009DCF98
:102740008091DA059091DB05A091DC05B091DD0563
:10275000892B8A2B8B2B09F494CF0E947D02209128
:10276000DA053091DB054091DC055091DD056419F7
:10277000750986099709261737074807590708F08A
:1027800080CFB6CFE00EF11EEC14FD0408F408CFA4
:1027900081E0DF91CF911F910F91FF90EF90DF903B
:1027A000CF90BF90AF909F908F907F906F905F90F1
:1027B0004F903F902F90089580E0EBCF0F931F93A1
:1027C000CF93DF931F921F92CDB7DEB78C011A8291
:1027D0001982FC0182819381009709F4606C6983FE
:1027E0000097D1F041E050E0BE016F5F7F4F0E9443
:1027F0008C1242E050E0BE016F5F7F4FF801828192
:1028000093810E94B91289819A810F900F90DF9174
:10281000CF911F910F91089522E030E0AE014F5FFC
:102820005F4FBA01F801848195810E943B07EBCF8D
:10283000CF92DF92EF92FF921F93CF93DF93EC0141
:1028400080E2689FF0011124E657FC4F9385917157
:1028500061F0842F827449F080E0DF91CF911F9165
:10286000FF90EF90DF90CF900895142F6A8B8091A6
:10287000000290910102A0910202B09103028E87A2
:102880009F87A88BB98BC488D588F12CE12C760161
:10289000DD24CC24CF8AD88EE98EFA8E828D938D5A
:1028A000B0E0A0E0AC01BD014C295D296E297F2973
:1028B0004F8B588F698F7A8F83858871B1F4848D9F
:1028C000958DA68DB78D8B8B9C8BAD8BBE8B81E050
:1028D0008D831F701C831E821F82188619861A869C
:1028E0001B861C861D8681E0B8CF803109F0B4CFED
:1028F0009E012D5E3F4F8B8D9C8D0E94D20B8823B5
:1029000009F4AACF84E0E4CFCF93DF93EC0180E514
:1029100092E0998388838A819B81009711F00E94BD
:102920005B200C80DD81C02D209759F08A819B812E
:10293000009711F00E945B20CE01DF91CF910C94A3
:102940005B20DF91CF910895CF93DF93EC010E943C
:102950008414CE01DF91CF910C945B20EF92FF9213
:102960000F931F93CF93DF931F921F92CDB7DEB7C4
:102970007C01FC01048115810115110509F042C09B
:1029800082819381009711F00E945B2086E090E0A5
:102990000E94BF1F8C0183E5F80180838FE996E0D8
:1029A00092838183138280E290E095838483F70190
:1029B0001383028310929105109290051092DF0507
:1029C000109201060E94F60486E991E090938D052D
:1029D00080938C0587E991E090938F0580938E0515
:1029E00081E0F8018383C8010E942506811120C07F
:1029F00080E00F900F90DF91CF911F910F91FF908A
:102A0000EF900895F80183858F3F41F061E00E94C7
:102A1000240261E0F80183850E949801F801808119
:102A20009181892BB1F10E94E20381E0F801838F4B
:102A3000F7018281938120E8009709F020E0298343
:102A4000009709F448C041E050E0BE016F5F7F4F3E
:102A50000E948C1241E050E0BE016F5F7F4FF70192
:102A6000828193810E94B9128981853E09F68DE2A7
:102A7000898388E08A83F701828193810097B9F185
:102A800042E050E0BE016F5F7F4F0E948C1281E0F8
:102A9000B0CF61E084850E942402F80182858B7F9B
:102AA00060E009F061E084850E949801F801858565
:102AB0008F3F41F061E00E94240261E0F8018585CA
:102AC0000E949801F80186858F3F09F4AECF60E03F
:102AD0000E942402AACF21E030E0AE014F5F5F4F99
:102AE000BA01F701848195810E943B07BDCF048123
:102AF0001581C8010E9423076981C8010E9418043A
:102B00006A81C8010E941804C8010E94E806BFCF6C
:102B1000FB0101900020E9F73197AF01461B570BED
:102B2000DC01ED91FC910280F381E02D19948F92EC
:102B30009F92AF92BF920F931F93CF93DF93CDB726
:102B4000DEB7A1970FB6F894DEBF0FBECDBF19A2B6
:102B5000423008F44AE08E010F5D1F4F842E912C05
:102B6000B12CA12CA50194010E94671FE62FB90189
:102B7000CA01EA3004F5E05DD801EE938D01232B04
:102B8000242B252B79F790E080E0109729F0BD01E8
:102B900086EF96E00E948815A1960FB6F894DEBFE6
:102BA0000FBECDBFDF91CF911F910F91BF90AF901E
:102BB0009F908F900895E95CDFCFCF92DF92EF92E4
:102BC000FF92CF93DF936C01990FEE08FF08F7FE99
:102BD00021C06DE286EF96E00E942911EC01662784
:102BE0007727CB016C197D098E099F094AE00E9465
:102BF0009715C80FD91F6AE572E086EF96E00E942C
:102C000088158C0F9D1FDF91CF91FF90EF90DF9083
:102C1000CF9008954AE0C701B6010E949715EC01D4
:102C2000EACFCF93DF93BC0182E096E00E94881543
:102C3000EC016AE572E082E096E00E9488158C0F54
:102C40009D1FDF91CF9108950F931F93CF93DF9333
:102C50008C01EB0188E2FB0111928A95E9F74BE0C8
:102C600050E06DE572E0CE010E94F1201B8681E00C
:102C700090E0A0E0B0E08C879D87AE87BF87F80129
:102C80004681578160857185488B598B6A8B7B8B18
:102C90008C8B9D8BAE8BBF8B1CA21DA21EA21FA274
:102CA0008AE098EEACE1B3EC888F998FAA8FBB8F46
:102CB0008AE098EEACE1B3E48C8F9D8FAE8FBF8F2E
:102CC00083EA9FEAA0E2BDE388A399A3AAA3BBA3DA
:102CD000DF91CF911F910F9108950F931F93CF9381
:102CE000DF938C01EB01FB01349680E2DF011D9242
:102CF0008A95E9F784E290E0A0E0B0E088839983C8
:102D0000AA83BB83F80186819781A085B1858C83D6
:102D10009D83AE83BF8381E090E0A0E0B0E0888730
:102D20009987AA87BB87188A198A1A8A1B8A62E33D
:102D3000C8010E94DE13BC01990F880B990B0E94F9
:102D40005A1E2FE632E143E85BE30E94951E2AE01B
:102D500038EE4CE151E40E94951E6C8B7D8B8E8B7E
:102D60009F8B64E3C8010E94DE13BC01990F880B9E
:102D7000990B0E945A1E2FE632E143E85BE30E9462
:102D8000951E2AE038EE4CE151E40E94951E688FB2
:102D9000798F8A8F9B8F66E3C8010E94DE13BC0186
:102DA000990F880B990B0E945A1E2FE632E143E8D7
:102DB0005BE30E94951E2AE038EE4CE151E40E944C
:102DC000951E6C8F7D8F8E8F9F8F81E0DF91CF91CD
:102DD0001F910F91089585ED8093BC008091DA05D5
:102DE0009091DB05A091DC05B091DD050796A11D52
:102DF000B11D23E0B695A795979587952A95D1F7AC
:102E00002091BC0024FD03C01092D8050895409184
:102E1000DA055091DB056091DC057091DD05452BED
:102E2000462B472B69F30097A105B10541F02AE233
:102E30002A95F1F700C00197A109B109E1CF80916E
:102E4000D9050C9414053F924F925F926F927F9236
:102E50008F929F92AF92BF92CF92DF92EF92FF92AA
:102E60000F931F93CF93DF9300D000D000D01F9219
:102E70001F92CDB7DEB77C01FE013196CE010C96D4
:102E80006F0130E23193E817F907E1F7DA0130E03A
:102E900087E09D91B92E992309F43CC09E32F1F44C
:102EA0008A30C9F480E02B960FB6F894DEBF0FBECF
:102EB000CDBFDF91CF911F910F91FF90EF90DF90E9
:102EC000CF90BF90AF909F908F907F906F905F90CA
:102ED0004F903F90089538E08AE0DBCFECEAF1E0D4
:102EE0004491442321F031969413FACFDBCF83171A
:102EF000C8F24FED490F4E35A8F64FE9490F4A3158
:102F000018F440EEB42EB90EF601E30FF11DB082B5
:102F10003F5FBFCF8981803229F2322E8B01DB01E6
:102F20005B968D919C915C97F701948F838F169699
:102F30001D921D921D921C921997FB0112861386F9
:102F400014861586F80182859385A485B585438905
:102F500054896589768984179507A607B70708F00D
:102F60004DC025E0B695A795979587952A95D1F7F9
:102F7000F82FFF70AF2ED80115968C91823008F48F
:102F800091CFC8010E943F1197FD8CCFF801828537
:102F90009385A485B5854F96A11DB11D8287938722
:102FA000A487B587F0E2AF9EB001112466577C4F2D
:102FB0006115710509F476CFDB018C91882341F00E
:102FC000853E09F062C0BB2029F0BB24B394BACF80
:102FD000B1100EC0F701A28A809100029091010207
:102FE000A0910202B091030286879787A08BB18BD4
:102FF000DB018C918111E9CFBB24B394832D8271C5
:10300000823109F04FCFBB2009F44DC0F70166852E
:1030100077858089918941E00E943C09882309F4E1
:1030200041CFD70152968C91B0E28B9FC001112401
:1030300086579C4F009709F435CFFC013A9626E15C
:10304000DF011D922A95E9F72BE0F601DC010190E2
:103050000D922A95E1F721E238E2FC01318B208BB9
:1030600040E058E057874687338B228B318F208F83
:10307000578B468B81E00E941109882309F412CFF7
:10308000432DD70152966C910AC04BE050E0C60127
:103090000E94E420892B09F055CF432D6A2DC701EA
:1030A0000E94181400CFF8018581823009F4FACE0D
:1030B000C8010E94250D882309F4F4CED8015B963F
:1030C000ED91FC915C9716968D909D90AD90BC9083
:1030D0001997B2E08B1A9108A108B108858504C040
:1030E000880C991CAA1CBB1C8A95D2F786859785EB
:1030F000A089B189880E991EAA1EBB1E8481240155
:103100003501480E511C611C711C84149504A604E1
:10311000B70409F1E1E04E1A51086108710881E035
:103120000E941109882309F4BDCEEAE8F3E0119268
:103130008AE895E08E179F07D1F7409200025092DF
:103140000102609202027092030280910703816083
:1031500080930703DACFD8015B96ED91FC9125852A
:1031600080E092E0A0E0B0E004C0880F991FAA1FA1
:10317000BB1F2A95D2F7F80143895489658976895E
:10318000840F951FA61FB71F838B948BA58BB68BBF
:10319000D70152961C928AE893E04FCFEF92FF92AC
:1031A0000F931F93CF93DF93EC017B018A011B8266
:1031B0001A8288EE93E0A0E0B0E08C839D83AE831A
:1031C000BF838EE392E0998388838DE190E00E9433
:1031D000BF1F9A8F898F009779F02DE1F701DC01ED
:1031E00001900D922A95E1F74CE050E0B801CE0134
:1031F0000C960E94F120188EDF91CF911F910F91B4
:10320000FF90EF9008951F920F920FB60F92112426
:103210002F933F938F939F93AF93BF93809182039C
:1032200090918303A0918403B09185033091810331
:1032300023E0230F2D3758F50196A11DB11D2093D2
:1032400081038093820390938303A0938403B093BC
:1032500085038091860390918703A0918803B091A4
:1032600089030196A11DB11D809386039093870366
:10327000A0938803B0938903BF91AF919F918F91E1
:103280003F912F910F900FBE0F901F90189526E839
:10329000230F0296A11DB11DD2CF1F920F920FB620
:1032A0000F9211240BB60F922F933F934F935F937E
:1032B0006F937F938F939F93AF93BF93EF93FF93FE
:1032C00082E096E00E942203FF91EF91BF91AF91BF
:1032D0009F918F917F916F915F914F913F912F912E
:1032E0000F900BBE0F900FBE0F901F9018951F925E
:1032F0000F920FB60F9211240BB60F922F938F934C
:103300009F93EF93FF93E0911206F0911306808153
:10331000E0911806F091190682FD1DC09081809100
:103320001B068F5F8F7320911C06821741F0E0917E
:103330001B06F0E0EE5FF94F958F80931B06FF911F
:10334000EF919F918F912F910F900BBE0F900FBE19
:103350000F901F9018958081F2CF1F920F920FB699
:103360000F9211240BB60F922F933F934F935F93BD
:103370006F937F938F939F93AF93BF93EF93FF933D
:103380008091B900887F803609F44DC008F040C0B4
:10339000883209F4A9C028F5803109F49DC0C8F429
:1033A000882309F4FBC0883009F496C0FF91EF919F
:1033B000BF91AF919F918F917F916F915F914F914D
:1033C0003F912F910F900BBE0F900FBE0F901F904B
:1033D0001895883109F488C0803241F78093D6056A
:1033E00014C0803409F49DC040F48033B9F38833AD
:1033F000E9F68093D60585ECB0C0803509F485C028
:10340000883509F496C0883489F60E94EB16CECF31
:10341000883909F48CC038F5883729F050F488369B
:1034200011F0803719F683E08093D80510924F038E
:1034300057C0883809F47BC0803919F0803809F00A
:10344000B5CF80914F03803208F071C0E0914F03F7
:1034500081E08E0F80934F038091BB00F0E0E15D2F
:10346000FC4F80833DC0803B39F0E0F4803A09F4A2
:1034700079C0883A09F09ACF84E08093D8051092F9
:103480002E0310922D03E0918C05F0918D05199576
:1034900080912D0381110FC081E080932D03109244
:1034A0000D0309C0803C09F4A6CF883C09F4A3CFE2
:1034B000883B09F07BCFE0912E0381E08E0F809353
:1034C0002E03F0E0E35FFC4F80818093BB0090917E
:1034D0002E0380912D0329C08091B3058093BB00FA
:1034E00085EC8093BC0062CF9091D5058091D40586
:1034F000981758F5E091D50581E08E0F8093D5059A
:10350000F0E0EC54FA4F8081E9CFE091D50581E0FD
:103510008E0F8093D5058091BB00F0E0EC54FA4FFC
:1035200080839091D5058091D4059817C8F285E8DD
:10353000D8CFE091D50581E08E0F8093D50580919D
:10354000BB00F0E0EC54FA4F80838091D7058111E5
:103550005CCF81E08093B20584EA8093BC00109236
:10356000D80524CF85EC8093BC001092D8058091BB
:103570004F03803230F4E0914F03F0E0E15DFC4F07
:10358000108260914F0370E0E0918E05F0918F05FD
:103590008FE293E0199510924F0308CF1092D60551
:1035A00034CF8F929F92AF92BF92CF92DF92EF92E1
:1035B000FF924B015C010E947D026B017C010E9425
:1035C0007D026C197D098E099F09683E7340810553
:1035D0009105A8F321E0821A9108A108B10888EEAC
:1035E000C80E83E0D81EE11CF11C81149104A104D3
:1035F000B10429F7FF90EF90DF90CF90BF90AF908C
:103600009F908F9008952F923F924F925F926F926A
:103610007F928F929F92AF92BF92CF92DF92EF9262
:10362000FF920F931F93CF93DF93582E462E342E85
:10363000222EE8010E94A2024B015C01712C612C38
:1036400010E000E0F12CE12CD12CC12C0E94A20250
:10365000681979098A099B096838734181059105C0
:10366000D8F4852D0E945502C80ED91E842D0E94C3
:103670005502E80EF91E832D0E945502080F191FEE
:10368000822D0E945502680E791E64E670E080E08B
:1036900090E00E94D11ADACF22E330E0C601B901EE
:1036A0000E94531F79836883C701B9010E94531F89
:1036B0007B836A83C801B9010E94531F7D836C8399
:1036C000C301B9010E94531F7F836E8368E873E1D1
:1036D00080E090E00E94D11A0E94A2024B015C019E
:1036E000712C612C10E000E0F12CE12CD12CC12CCC
:1036F0000E94A202681979098A099B0968387341F6
:1037000081059105D8F4852D0E945502C80ED91E59
:10371000842D0E945502E80EF91E832D0E94550249
:10372000080F191F822D0E945502680E791E64E64B
:1037300070E080E090E00E94D11ADACF22E330E01E
:10374000C601B9010E94531F79876887C701B90173
:103750000E94531F7B876A87C801B9010E94531FCB
:103760007D876C87C301B9010E94531F7F876E87D5
:10377000DF91CF911F910F91FF90EF90DF90CF904D
:10378000BF90AF909F908F907F906F905F904F9081
:103790003F902F900895E2E0F6E01382128288EEC7
:1037A00093E0A0E0B0E084839583A683B7832EE006
:1037B00032E03183208325EC30E03587248724EC08
:1037C00030E03787268720EC30E0318B208B21ECEE
:1037D00030E0338B228B22EC30E0358B248B26ECCF
:1037E00030E0378B268B118E128E138E148EEFE9FC
:1037F000F6E01382128284839583A683B78320E246
:1038000032E031832083EBEAF6E020E52083118269
:10381000EDEAF6E0158216821186138642E050E04A
:1038200060E070E0448755876687778713A215A606
:1038300014A622E332E033A722A717A6EDE1F7E0B2
:1038400020E532E0318320831382128215821482B4
:103850004DE150E060E070E04683578360877187F8
:1038600013861286E1E1F7E031832083138212820E
:103870001582148243E550E060E070E04683578390
:103880006087718713861286E6EFF6E01382128254
:1038900084839583A683B7838EE392E091838083AC
:1038A000128E118E14860895789484B5826084BD3A
:1038B00084B5816084BD85B5826085BD85B5816034
:1038C00085BD80916E00816080936E0010928100B2
:1038D000809181008260809381008091810081606D
:1038E000809381008091800081608093800080912E
:1038F000B10084608093B1008091B00081608093BA
:10390000B00080919100826080939100809191003D
:1039100081608093910080919000816080939000FD
:103920008091A10082608093A1008091A1008160BC
:103930008093A1008091A00081608093A00080917D
:103940002101826080932101809121018160809317
:1039500021018091200181608093200180917A0073
:10396000846080937A0080917A00826080937A00EC
:1039700080917A00816080937A0080917A008068DB
:1039800080937A001092C100E0911206F091130624
:1039900082E08083E0910E06F0910F061082E091A4
:1039A0001006F09111068FEC808310921A06E091B8
:1039B0001606F091170686E08083E0911406F091D8
:1039C0001506808180618083E0911406F0911506D0
:1039D000808188608083E0911406F09115068081D3
:1039E00080688083E0911406F091150680818F7DB8
:1039F00080838091DC06882321F087ED96E00E9489
:103A0000C90E1092B8061092B6061092B306109224
:103A1000B20684E08093B1060E94A202EB0161E04D
:103A20008091B1060E94240261E08091B1060E945B
:103A300098010E94E20382E58093AB061092AC06E7
:103A40008091AB069091AC060E9420071AE08FEFA0
:103A50000E94FB061150D9F78DEA96E00E946A0792
:103A600020E030E0A90160E08DEA96E00E94800746
:103A7000182F8093B706813009F44DC00E94A2022E
:103A80006C1B7D0B613D774058F381E08093B2065B
:103A90008DEA96E00E94F00685E692E00E941116FB
:103AA00086E30E945502909372038093710387E32B
:103AB0000E945502909374038093730388E30E94DD
:103AC0005502909376038093750389E30E94550213
:103AD00090937803809377038AE30E945502909332
:103AE0007A03809379038BE30E94550290937C03C1
:103AF00080937B038CE30E94550290937E03809316
:103B00007D038DE30E9455029093800380937F0391
:103B10000E94B103C5CF2AEA31E040E050E068E0FE
:103B20008DEA96E00E94800782FF2AC01093B806B3
:103B30008091B806C12CD12C7601823029F4C12C99
:103B4000D12CE12C80E4F82E20E030E0A90167E3DD
:103B50008DEA96E00E948007A701960169E28DEA4E
:103B600096E00E9480078093B7068823C1F00E94E8
:103B7000A2026C1B7D0B613D774030F388E086CF5D
:103B800014E00E9402078093B7061150D1F78A3AD9
:103B900011F082E07BCF82E08093B806C9CF80919C
:103BA000B8068230D1F420E030E0A9016AE38DEA62
:103BB00096E00E948007882311F086E067CF0E947C
:103BC0000207807C803C19F483E08093B8060E9451
:103BD00002070E9402070E9402078DEA96E00E94F7
:103BE000F00680E58093AB061092AC0681E00E945F
:103BF0008609882391F087ED96E00E943D0C88238A
:103C000009F44ACF8DE197E00E94AE1481110CC0F7
:103C10008FE792E00E941116FFCF80E00E94860994
:103C2000882309F439CFE7CF81E197E00E94AE14F1
:103C3000811105C082EC92E00E941116FFCF01E6CF
:103C400013E029E330E048E350E067E370E086E307
:103C500090E00E94031B01E513E029E330E048E314
:103C600050E067E370E086E390E00E94031B01E60A
:103C700013E02DE330E04CE350E06BE370E08AE3C7
:103C800090E00E94031B01E513E02DE330E04CE3DC
:103C900050E06BE370E08AE390E00E94031B00CFEA
:103CA00081E197E00E9484148DE197E00C948414E4
:103CB000E89409C097FB3EF49095809570956195C6
:103CC0007F4F8F4F9F4F9923A9F0F92F96E9BB277C
:103CD0009395F695879577956795B795F111F8CFF8
:103CE000FAF4BB0F11F460FF1BC06F5F7F4F8F4F63
:103CF0009F4F16C0882311F096E911C0772321F059
:103D00009EE8872F762F05C0662371F096E8862FF0
:103D100070E060E02AF09A95660F771F881FDAF747
:103D2000880F9695879597F908950E94A81E0C9480
:103D3000191F0E940B1F38F00E94121F20F09523BC
:103D400011F00C94021F0C94081F11240C944D1FA9
:103D50000E942A1F70F3959FC1F3950F50E0551FE5
:103D6000629FF001729FBB27F00DB11D639FAA27D0
:103D7000F00DB11DAA1F649F6627B00DA11D661F1F
:103D8000829F2227B00DA11D621F739FB00DA11D40
:103D9000621F839FA00D611D221F749F3327A00DFA
:103DA000611D231F849F600D211D822F762F6A2F96
:103DB00011249F5750409AF0F1F088234AF0EE0FFB
:103DC000FF1FBB1F661F771F881F91505040A9F728
:103DD0009E3F510580F00C94021F0C944D1F5F3FD5
:103DE000E4F3983ED4F3869577956795B795F79564
:103DF000E7959F5FC1F7FE2B880F911D96958795DC
:103E000097F9089597F99F6780E870E060E008955A
:103E10009FEF80EC089500240A94161617061806E2
:103E20000906089500240A941216130614060506BE
:103E30000895092E0394000C11F4882352F0BB0F4F
:103E400040F4BF2B11F460FF04C06F5F7F4F8F4FB2
:103E50009F4F089557FD9058440F551F59F05F3FED
:103E600071F04795880F97FB991F61F09F3F79F09C
:103E700087950895121613061406551FF2CF46951E
:103E8000F1DF08C0161617061806991FF1CF8695A0
:103E90007105610508940895E894BB276627772784
:103EA000CB0197F9089597FB072E16F4009407D0DD
:103EB00077FD09D00E949C1F07FC05D03EF4909529
:103EC00081959F4F0895709561957F4F0895A1E268
:103ED0001A2EAA1BBB1BFD010DC0AA1FBB1FEE1F84
:103EE000FF1FA217B307E407F50720F0A21BB30BCF
:103EF000E40BF50B661F771F881F991F1A9469F74B
:103F000060957095809590959B01AC01BD01CF01A6
:103F10000895EE0FFF1F881F8BBF0790F691E02DCD
:103F200019940E94B01FA59F900DB49F900DA49F5F
:103F3000800D911D11240895AA1BBB1B51E107C0E0
:103F4000AA1FBB1FA617B70710F0A61BB70B881F29
:103F5000991F5A95A9F780959095BC01CD010895B8
:103F6000A29FB001B39FC001A39F700D811D1124BA
:103F7000911DB29F700D811D1124911D08950F9305
:103F80001F93CF93DF938230910510F482E090E08D
:103F9000E0912B07F0912C0730E020E0B0E0A0E0AA
:103FA000309799F42115310509F44AC0281B390BC3
:103FB00024303105D8F58A819B816115710589F11D
:103FC000FB0193838283FE0111C0408151810281F4
:103FD000138148175907E0F04817590799F41097CB
:103FE00061F012960C93129713961C933296CF01A0
:103FF000DF91CF911F910F91089500932B0710939C
:104000002C07F4CF2115310551F04217530738F032
:10401000A901DB019A01BD01DF01F801C1CFEF0168
:10402000F9CF90932C0780932B07CDCFFE01E20FA1
:10403000F31F819391932250310939832883D7CF7D
:104040002091290730912A07232B41F42091060261
:104050003091070230932A07209329072091040208
:10406000309105022115310541F42DB73EB740913D
:10407000080250910902241B350BE0912907F091A9
:104080002A07E217F307A0F42E1B3F0B2817390766
:1040900078F0AC014E5F5F4F2417350748F04E0FA4
:1040A0005F1F50932A0740932907819391939FCFD5
:1040B000F0E0E0E09CCFCF93DF930097E9F0FC01C4
:1040C000329713821282A0912B07B0912C07ED0139
:1040D00030E020E01097A1F420813181820F931FFE
:1040E0002091290730912A072817390709F061C064
:1040F000F0932A07E0932907DF91CF910895EA0111
:10410000CE17DF07E8F54A815B819E014115510515
:10411000B1F7E901FB83EA8349915991C40FD51F97
:10412000EC17FD0761F4808191810296840F951F41
:10413000E90199838883828193819B838A83F0E05C
:10414000E0E012968D919C9113970097B9F52D910F
:104150003C911197CD010296820F931F2091290760
:1041600030912A072817390739F6309751F5109200
:104170002C0710922B07B0932A07A0932907BCCFD6
:10418000D383C28340815181840F951FC817D907FB
:1041900061F44E5F5F4F88819981480F591F5183A9
:1041A00040838A819B81938382832115310509F0A5
:1041B000B0CFF0932C07E0932B079ECFFD01DC01DD
:1041C000C0CF13821282D7CFFB01DC0104C08D91D6
:1041D0000190801921F441505040C8F7881B990B79
:1041E0000895FB01DC014150504048F001900D92D0
:1041F0000020C9F701C01D9241505040E0F70895DA
:1042000011E0C2E6D1E000E006C0802FFE010E946E
:10421000891F2196011DC336D10780E00807A9F741
:10422000F894FFCFFFFFFFFF00002D078000000084
:1042300000004403AE02DB0291030C03EA02FE021B
:1042400000000000B5068806E4065E0681066E06DC
:104250005F06000000007110AE026B0ED21000006D
:10426000000029110C11FC10D310DC105E12681232
:10427000000000008414A414CE046D1624160D0A48
:10428000004144584C33343500534420696E6974FE
:1042900069616C697A6174696F6E206661696C65C9
:1042A000642100436F756C64206E6F742066696EC4
:1042B0006420612076616C6964204144584C333439
:1042C000352073656E736F7220666F72206C656641
:1042D0007420666F6F742C20636865636B20776948
:1042E00072696E672100436F756C64206E6F742075
:1042F00066696E6420612076616C6964204144586F
:104300004C3334352073656E736F7220666F722084
:10431000726967687420666F6F742C2063686563C8
:0A4320006B20776972696E67210057
:020000040003F7
:10E000000D9489F10D94B2F10D94B2F10D94B2F129
:10E010000D94B2F10D94B2F10D94B2F10D94B2F1F0
:10E020000D94B2F10D94B2F10D94B2F10D94B2F1E0
:10E030000D94B2F10D94B2F10D94B2F10D94B2F1D0
:10E040000D94B2F10D94B2F10D94B2F10D94B2F1C0
:10E050000D94B2F10D94B2F10D94B2F10D94B2F1B0
:10E060000D94B2F10D94B2F10D94B2F10D94B2F1A0
:10E070000D94B2F10D94B2F10D94B2F10D94B2F190
:10E080000D94B2F10D94B2F10D94B2F10D94B2F180
:10E090000D94B2F10D94B2F10D94B2F10D94B2F170
:10E0A0000D94B2F10D94B2F10D94B2F10D94B2F160
:10E0B0000D94B2F10D94B2F10D94B2F10D94B2F150
:10E0C0000D94B2F10D94B2F10D94B2F10D94B2F140
:10E0D0000D94B2F10D94B2F10D94B2F10D94B2F130
:10E0E0000D94B2F141546D656761323536300041AF
:10E0F000726475696E6F206578706C6F72657220DE
:10E1000073746B3530305632206279204D4C530099
:10E11000426F6F746C6F616465723E004875683F52
:10E1200000436F6D70696C6564206F6E203D200048
:10E130004350552054797065202020203D20005FF9
:10E140005F4156525F415243485F5F3D2000415658
:10E1500052204C696243205665723D20004743437C
:10E160002056657273696F6E203D20004350552024
:10E1700049442020202020203D20004C6F7720663D
:10E18000757365202020203D20004869676820665F
:10E190007573652020203D200045787420667573D6
:10E1A00065202020203D20004C6F636B2066757336
:10E1B000652020203D20004D617220203720323024
:10E1C000313300312E362E3800342E332E350056A2
:10E1D00023202020414444522020206F7020636F70
:10E1E00064652020202020696E73747275637469E1
:10E1F0006F6E2061646472202020496E74657272B3
:10E20000757074006E6F20766563746F7200726A49
:10E210006D702020006A6D70200057686174207056
:10E220006F72743A00506F7274206E6F7420737541
:10E2300070706F72746564004D7573742062652030
:10E2400061206C6574746572002000577269747483
:10E25000696E672045450052656164696E672045B7
:10E26000450045452065727220636E743D00504F35
:10E27000525400303D5A65726F2061646472003FF1
:10E280003D43505520737461747300403D454550C3
:10E29000524F4D207465737400423D426C696E6B41
:10E2A000204C454400453D44756D70204545505215
:10E2B0004F4D00463D44756D7020464C415348001B
:10E2C000483D48656C70004C3D4C69737420492F83
:10E2D0004F20506F72747300513D51756974005234
:10E2E0003D44756D702052414D00563D73686F7707
:10E2F00020696E7465727275707420566563746FF0
:10E30000727300593D506F727420626C696E6B00BD
:10E310002A0011241FBECFEFD1E2DEBFCDBF01E046
:10E320000CBF12E0A0E0B2E0EEE1FDEF03E00BBFB6
:10E3300002C007900D92A030B107D9F712E0A0E01B
:10E34000B2E001C01D92AE30B107E1F70F9460F367
:10E350000D948DFE01E20EBF0FEF0DBF11241FBE05
:10E360000D9460F30D9400F020E030E040ED57E0B4
:10E3700005C0FA013197F1F72F5F3F4F2817390792
:10E38000C0F308959C01260F311DC901A0E0B0E043
:10E390002F5F3F4FABBFFC018791882361F08093D3
:10E3A000C6008091C00086FFFCCF8091C0008064D1
:10E3B0008093C000EACF08958DE08093C6008091DD
:10E3C000C00086FFFCCF8091C00080648093C000B5
:10E3D0008AE08093C6008091C00086FFFCCF8091C8
:10E3E000C00080648093C00008950F94C2F10F9420
:10E3F000DCF10895FC019081992359F09093C600B7
:10E400008091C00086FFFCCF8091C0008064809323
:10E41000C0003196992379F70895282F982F929567
:10E420009F70892F805D8A3308F0895F8093C600D2
:10E430008091C00086FFFCCF8091C00080648093F3
:10E44000C000822F8F70982F905D9A3308F0995FEB
:10E450009093C6008091C00086FFFCCF8091C000E1
:10E4600080648093C00008959C01FB01853691056E
:10E470001CF46330710594F0C90164E670E00F94F8
:10E480002EFE605D7F4F6093C6008091C00086FFC6
:10E49000FCCF8091C00080648093C0002B30310598
:10E4A00014F43297B4F0C90164E670E00F942EFEC4
:10E4B0006AE070E00F942EFE605D7F4F6093C600AF
:10E4C0008091C00086FFFCCF8091C0008064809363
:10E4D000C000C9016AE070E00F942EFEC0968093E0
:10E4E000C6008091C00086FFFCCF8091C000806490
:10E4F0008093C00008951F93182F8EE692EE60E07F
:10E500000F94C2F11093C6008091C00086FFFCCF2B
:10E510008091C00080648093C0000F94DCF11F9153
:10E5200008952F923F924F925F926F927F928F92B7
:10E530009F92AF92BF92CF92DF92EF92FF920F9392
:10E540001F93DF93CF93CDB7DEB762970FB6F894E2
:10E55000DEBF0FBECDBF382E622ECA01DB015C01CB
:10E560006D01772420E2222E2E010894411C511CBB
:10E570008BC081E0A81680E0B80681E0C80680E084
:10E58000D80628F0C601AA27BB270F940DF2BB2797
:10E59000AD2D9C2D8B2D0F940DF28A2D0F940DF225
:10E5A0002092C6008091C00086FFFCCF8091C00001
:10E5B00080648093C0009DE29093C6008091C0006B
:10E5C00086FFFCCF8091C00080648093C0002092C1
:10E5D000C6008091C00086FFFCCF8091C00080649F
:10E5E0008093C00019828601750188249924A1E0D6
:10E5F0003A1651F03A1620F0B2E03B1661F409C029
:10E600000BBFF701779007C0C7010F9477FE782EF4
:10E6100002C0F7017080872D0F940DF22092C60082
:10E620008091C00086FFFCCF8091C0008064809301
:10E63000C000872D8052F401EF70F0708F3520F408
:10E64000E40DF51D708204C0E40DF51D8EE280839B
:10E650000894E11CF11C011D111D0894811C911CE2
:10E6600090E18916910409F0C2CF80E190E0A0E02A
:10E67000B0E0A80EB91ECA1EDB1E198AC2010F9493
:10E68000FAF10F94DCF16A94662009F072CF629679
:10E690000FB6F894DEBF0FBECDBFCF91DF911F91B3
:10E6A0000F91FF90EF90DF90CF90BF90AF909F9031
:10E6B0008F907F906F905F904F903F902F90089534
:10E6C0002F923F924F925F926F927F928F929F9282
:10E6D000AF92BF92CF92DF92EF92FF920F931F9370
:10E6E000DF93CF93CDB7DEB7CD53D1400FB6F894BB
:10E6F000DEBF0FBECDBF01E20EBF0FEF0DBF94B75F
:10E70000F894A89514BE80916000886180936000A1
:10E7100010926000789493FF05C0E0910002F091A0
:10E7200001021995279A2F9A8091C00082608093E8
:10E73000C00080E18093C40088E18093C1000000A4
:10E74000EE24FF24870144E0A42EB12CCC24DD2448
:10E7500024C0C5010197F1F70894E11CF11C011DCB
:10E76000111D21E2E2162EE4F20620E0020720E06D
:10E77000120718F031E0C32ED12CC801B70127ECE5
:10E780003BE140E050E00F9441FE611571058105C9
:10E79000910519F485B1805885B98091C00087FD35
:10E7A00003C0C114D104A9F2A6014F5F5F4FC25E3E
:10E7B000DE4F59834883CE51D140C25EDE4F8881FF
:10E7C0009981CE51D140019711F00D9410FEC05D9A
:10E7D000DE4F19821882C053D14060E0C15DDE4F28
:10E7E0001882CF52D14088249924C35DDE4F19820C
:10E7F0001882CD52D140C05EDE4F188219821A8233
:10E800001B82C052D140CE5CDE4F188219821A8220
:10E810001B82C253D140EE24FF2487010BBFF701B6
:10E8200007911691C45CDE4F19830883CC53D14005
:10E830000D940BFEC25EDE4F28813981CE51D1404E
:10E840002130310509F52091C600C25EDE4F1982E4
:10E850001882CE51D14022C02F5F3F4F4F4F5F4FA4
:10E86000213082E138078AE7480780E0580780F0C6
:10E87000C45CDE4FE881F981CC53D140EF5FFF4F9C
:10E8800019F0EE27FF27099420E030E040E050E047
:10E890008091C00087FFE0CF2091C600C35DDE4FAE
:10E8A00048815981CD52D1404F5F5F4FC35DDE4FEC
:10E8B00059834883CD52D140213209F063C64A3092
:10E8C000510508F05FC60894811C911C53E0851621
:10E8D000910409F059C600E010E018C081E280936D
:10E8E000C6008091C00086FFFCCF8091C00080648C
:10E8F0008093C0002F5F3F4F2931310579F70F9486
:10E90000DCF10F5F1F4F0530110519F020E030E0FA
:10E91000E5CF10920A0210920B0210920C02109294
:10E920000D02109206021092070210920802109235
:10E930000902109202021092030210920402109235
:10E9400005028FEE90EE60E00F94F5F180E191EE1C
:10E9500060E00F94C2F18091C00087FFFCCF9091DE
:10E96000C600903608F09F759032B8F09093C600BC
:10E970008091C00086FFFCCF8091C00080648093AE
:10E98000C000A0E2A093C6008091C00086FFFCCF2B
:10E990008091C00080648093C000983409F4D7C18E
:10E9A0009934B8F4923409F459C1933458F490333B
:10E9B00019F1903308F4E3C59F33A1F1903409F0C5
:10E9C000DEC5BDC0953409F470C1963409F0D7C5D1
:10E9D00098C1923509F42BC2933538F49C3409F46C
:10E9E000F5C1913509F0CBC518C2963509F445C279
:10E9F000993509F0C4C567C483E792EE62E00F94CD
:10EA0000F5F110920602109207021092080210927D
:10EA1000090210920A0210920B0210920C0210923C
:10EA20000D0213C18FE792EE62E00F94F5F18FEEC5
:10EA300090EE60E00F94F5F181E291EE60E00F94CA
:10EA4000C2F187EB91EE60E00F94F5F180E391EE77
:10EA500060E00F94C2F184EE90EE60E00F94F5F167
:10EA60008FE391EE60E00F94C2F186E090E061E008
:10EA700070E00F9434F20F94DCF18DE591EE60E0DC
:10EA80000F94C2F189EC91EE60E00F94F5F18EE401
:10EA900091EE60E00F94C2F183EC91EE60E00F9490
:10EAA000F5F18CE691EE60E00F94C2F18EE10F94E7
:10EAB0000DF288E90F940DF281E00F940DF20F949E
:10EAC000DCF18BE791EE60E00F94C2F119E0E0E039
:10EAD000F0E010935700E4918E2F0F940DF20F94F5
:10EAE000DCF18AE891EE60E00F94C2F1E3E0F0E03F
:10EAF00010935700E4918E2F0F940DF20F94DCF1D8
:10EB000089E991EE60E00F94C2F1E2E0F0E0109349
:10EB10005700E4918E2F0F940DF20F94DCF188EAE8
:10EB200091EE60E00F94C2F1E1E0F0E01093570045
:10EB30001491812F0F940DF20F94DCF107CF8BE825
:10EB400092EE62E00F94F5F18BE492EE60E00F94A8
:10EB5000F5F10F94DCF100E010E019C0C8016F2D51
:10EB60000F947FFEFF2031F489E492EE60E00F9471
:10EB7000C2F10BC0F092C6008091C00086FFFCCFAE
:10EB80008091C00080648093C0000F5F1F4FC80158
:10EB900081519F41A0E0B0E0ABBFFC01F790BAE229
:10EBA000FB1621F0E2E000301E07C1F60F94DCF105
:10EBB0000F94DCF187E592EE60E00F94F5F10F948D
:10EBC000DCF1CC24DD2400E010E01EC0C8010F946D
:10EBD00077FEF82E882331F489E492EE60E00F94FA
:10EBE000C2F10BC08093C6008091C00086FFFCCFAD
:10EBF0008091C00080648093C000FE1419F00894D6
:10EC0000C11CD11C0F5F1F4FC80181519F41A0E063
:10EC1000B0E0ABBFFC01E790FAE2EF1621F022E092
:10EC20000030120799F60F94DCF10F94DCF182E6C4
:10EC300092EE60E00F94C2F1C60161E070E00F94C3
:10EC400034F20F94DCF10F94DCF110920202109276
:10EC50000302109204021092050278CE89E992EE26
:10EC600062E00F94F5F1279A2F9A16C02F9880E052
:10EC700090E0E0EDF7E03197F1F7019684369105E9
:10EC8000C1F72F9A80E090E0E0EDF7E03197F1F7DF
:10EC9000019684369105C1F78091C00087FFE6CFC9
:10ECA0008091C00087FFFCCF64C485EA92EE62E0E9
:10ECB0000F94F5F140910202509103026091040219
:10ECC0007091050281E020E10F9491F2809102029F
:10ECD00090910302A0910402B091050280509F4FD1
:10ECE000AF4FBF4F8093020290930302A0930402A0
:10ECF000B093050280509041A040B04008F426CE69
:10ED0000A4CF83EB92EE62E00F94F5F140910602FE
:10ED100050910702609108027091090280E020E1A1
:10ED20000F9491F28091060290910702A09108023F
:10ED3000B091090280509F4FAF4FBF4F80930602A2
:10ED400090930702A0930802B0930902FFCD80ECD4
:10ED500092EE62E00F94F5F183E792EE60E00F949B
:10ED6000F5F18FE792EE60E00F94F5F18BE892EE0B
:10ED700060E00F94F5F189E992EE60E00F94F5F10F
:10ED800085EA92EE60E00F94F5F183EB92EE60E09D
:10ED90000F94F5F180EC92EE60E00F94F5F187ECC2
:10EDA00092EE60E00F94F5F188ED92EE60E00F9442
:10EDB000F5F18FED92EE60E00F94F5F18AEE92EEB0
:10EDC00060E00F94F5F183E093EEBDCD87EC92EE19
:10EDD00062E00F94F5F181E40F947BF282E40F94EA
:10EDE0007BF283E40F947BF284E40F947BF285E45E
:10EDF0000F947BF286E40F947BF287E40F947BF20E
:10EE000088E40F947BF28AE40F947BF28BE40F94F6
:10EE10007BF28CE40F947BF299CD88ED92EE62E068
:10EE20000F94F5F1772473948824992409C48FED05
:10EE300092EE62E00F94F5F140910A0250910B02BC
:10EE400060910C0270910D0282E020E10F9491F22A
:10EE500080910A0290910B02A0910C02B0910D02D8
:10EE600080509F4FAF4FBF4F80930A0290930B0289
:10EE7000A0930C02B0930D0269CD8AEE92EE62E08F
:10EE80000F94F5F184EE90EE60E00F94F5F18FECC5
:10EE900091EE60E00F94F5F1662477244301CC5D98
:10EEA000DE4F19821882C452D140D401C301B695F5
:10EEB000A79597958795CA5DDE4F88839983AA8326
:10EEC000BB83C652D140CC5DDE4FA881B981C4520C
:10EED000D1401196CC5DDE4FB983A883C452D14096
:10EEE000CD0162E070E00F9434F2B0E2B093C6005E
:10EEF0008091C00086FFFCCF8091C0008064809329
:10EF0000C000EDE2E093C6008091C00086FFFCCF18
:10EF10008091C00080648093C000F0E2F093C6004E
:10EF20008091C00086FFFCCF8091C00080648093F8
:10EF3000C000CA5DDE4FE880F9800A811B81C6529D
:10EF4000D140BB27A12F902F8F2D0F940DF2CA5DBA
:10EF5000DE4F8881C652D1400F940DF2B0E2FB2EF5
:10EF6000F092C6008091C00086FFFCCF8091C00067
:10EF700080648093C0000DE30093C6008091C000C0
:10EF800086FFFCCF8091C00080648093C00010E2B7
:10EF90001093C6008091C00086FFFCCF8091C00016
:10EFA00080648093C0008BBEF3012791C65DDE4F65
:10EFB0002883CA52D140A22EBB24CC24DD2408943D
:10EFC000611C711C811C911C8BBEF3018791282E42
:10EFD0003324442455240894611C711C811C911C09
:10EFE0008BBEF3013791C55DDE4F3883CB52D140E4
:10EFF0000894611C711C811C911C8BBEF30147910C
:10F00000C45DDE4F4883CC52D140ADEFEA2EAFEF66
:10F01000FA2EAFEF0A2FAFEF1A2F6E0C7F1C801E57
:10F02000911E142D032DF22CEE24EA0CFB1C0C1D5A
:10F030001D1D0F940DF220E22093C6008091C000A8
:10F0400086FFFCCF8091C00080648093C000C65DC5
:10F05000DE4F8881CA52D1400F940DF230E23093D6
:10F06000C6008091C00086FFFCCF8091C000806404
:10F070008093C000C45DDE4F8881CC52D1400F9494
:10F080000DF240E24093C6008091C00086FFFCCFA5
:10F090008091C00080648093C000C55DDE4F888190
:10F0A000CB52D1400F940DF250E25093C6008091A4
:10F0B000C00086FFFCCF8091C00080648093C000B8
:10F0C0008FEFE8168FEFF80680E0080780E018075A
:10F0D00031F484E092EE60E00F94C2F1DFC0D80119
:10F0E000C7018070907CA070B0708050904CA040A0
:10F0F000B040D1F52FEF3FE340E050E0E222F322B1
:10F1000004231523CA5DDE4FA880B980CA80DB8046
:10F11000C652D140AE0CBF1CC01ED11EAA0CBB1CD7
:10F12000CC1CDD1C8EE092EE60E00F94C2F1BB2798
:10F13000A12F902F8F2D0F940DF28E2D0F940DF285
:10F1400030E23093C6008091C00086FFFCCF8091F2
:10F15000C00080648093C0004EE34093C60080915D
:10F16000C00086FFFCCF87C08EE09EEFA0E0B0E03D
:10F17000E822F9220A231B239CE0E91694E9F90608
:10F1800090E0090790E0190709F088C0C45DDE4FE0
:10F19000A881CC52D140EA2EFF2400E010E0102FCD
:10F1A0000F2DFE2CEE24C55DDE4FB881CB52D14031
:10F1B000EB0EF11C011D111DD601C501817090706F
:10F1C000A070B070DC0199278827E80EF91E0A1F8D
:10F1D0001B1F20EF30E040E050E0A222B322C42207
:10F1E000D52241E1AA0CBB1CCC1CDD1C4A95D1F7F1
:10F1F000EA0CFB1C0C1D1D1D81E090E0A0E0B0E0BE
:10F20000282239224A225B2235E1220C331C441C7D
:10F21000551C3A95D1F7E20CF31C041D151D57013E
:10F220006801AA0CBB1CCC1CDD1C85E192EE60E0E1
:10F230000F94C2F1C801AA27BB270F940DF2BB2778
:10F24000A12F902F8F2D0F940DF28E2D0F940DF274
:10F2500090E29093C6008091C00086FFFCCF809121
:10F26000C00080648093C000AEE3A093C60080918C
:10F27000C00086FFFCCF8091C00080648093C000F6
:10F28000C601AA27BB270F940DF2BB27AD2D9C2DDD
:10F290008B2D0F940DF28A2D0F940DF20F94DCF14B
:10F2A000CC5DDE4FE881F981C452D140F99709F471
:10F2B0004DCBF4E0EF2EF12C012D112D6E0C7F1CA7
:10F2C000801E911EF2CD83E093EE62E00F94F5F183
:10F2D0008AE192EE60E00F94C2F18091C00087FF56
:10F2E000FCCF1091C6001F751093C6008091C0001E
:10F2F00086FFFCCF8091C00080648093C0000F9493
:10F30000DCF1812F81548A3108F036C1163409F4BA
:10F3100095C0173490F4133409F44EC0143430F40B
:10F320001134F1F0123409F01DC130C0143409F465
:10F3300059C0153409F016C16BC01A3409F4C4C0A1
:10F340001B3438F4173409F48FC0183409F00AC19B
:10F35000A1C01B3409F4D2C01C3409F003C1E8C0B9
:10F360008FEF81B90DC082B1809582B980E090E0C5
:10F37000E0EDF7E03197F1F70196883C9105C1F790
:10F380008091C00087FFEFCF12B8EFC08FEF84B934
:10F390000DC085B1809585B980E090E0E0EDF7E0A3
:10F3A0003197F1F70196883C9105C1F78091C00033
:10F3B00087FFEFCF15B8D9C08FEF87B90DC088B1DF
:10F3C000809588B980E090E0E0EDF7E03197F1F7C3
:10F3D0000196883C9105C1F78091C00087FFEFCF6F
:10F3E00018B8C3C08FEF8AB90DC08BB180958BB9A7
:10F3F00080E090E0E0EDF7E03197F1F70196883C8E
:10F400009105C1F78091C00087FFEFCF1BB8ADC059
:10F410008FEF8DB90DC08EB180958EB980E090E0F0
:10F42000E0EDF7E03197F1F70196883C9105C1F7DF
:10F430008091C00087FFEFCF1EB897C08FEF80BBD1
:10F440000DC081B3809581BB80E090E0E0EDF7E0F6
:10F450003197F1F70196883C9105C1F78091C00082
:10F4600087FFEFCF11BA81C08FEF83BB0DC084B38C
:10F47000809584BB80E090E0E0EDF7E03197F1F714
:10F480000196883C9105C1F78091C00087FFEFCFBE
:10F4900014BA6BC08FEF809301010FC080910201FD
:10F4A00080958093020180E090E0E0EDF7E03197F5
:10F4B000F1F70196883C9105C1F78091C00087FF64
:10F4C000EDCF1092020151C08FEF809304010FC065
:10F4D0008091050180958093050180E090E0E0ED4A
:10F4E000F7E03197F1F70196883C9105C1F78091DB
:10F4F000C00087FFEDCF1092050137C08FEF8093DA
:10F5000007010FC08091080180958093080180E079
:10F5100090E0E0EDF7E03197F1F70196883C910536
:10F52000C1F78091C00087FFEDCF109208011DC088
:10F530008FEF80930A010FC080910B01809580931B
:10F540000B0180E090E0E0EDF7E03197F1F70196F4
:10F55000883C9105C1F78091C00087FFEDCF1092E4
:10F560000B0103C085E292EEEEC98091C00087FFD7
:10F57000FCCF8091C600EAC988E392EEE4C98CE131
:10F5800091EEE1C988249924933011F1943028F444
:10F59000913089F09230B8F408C0953061F195301F
:10F5A000F0F0963009F048C043C02B3109F042C951
:10F5B00091E06BE13FC96227C15DDE4F2883CF52E6
:10F5C000D14092E037C9B22FA0E0622793E032C960
:10F5D000822F90E0A82BB92B622794E02BC92E3004
:10F5E00009F039C3622795E0C05DDE4F19821882A9
:10F5F000C053D1401FC9E1E0F0E0EC0FFD1FC05D3A
:10F60000DE4F08811981C053D140E00FF11F2083E4
:10F610000F5F1F4FC05DDE4F19830883C053D14079
:10F6200062270A171B0709F005C9D80196E002C92D
:10F63000261709F010C303C0973009F0FBC87724E0
:10F640009981933109F412C19431C8F4963009F4C8
:10F65000D8C0973050F4923009F406C1933009F4C1
:10F660006DC0913009F059C253C0913109F477C08F
:10F67000923108F0BBC0903109F04FC2F5C098310B
:10F6800009F487C0993150F4953109F4EFC09531F0
:10F6900008F4C6C1963109F040C2C2C19A3109F4DA
:10F6A0006CC09A3108F491C09B3109F45BC09D3164
:10F6B00009F033C29D81903359F48F81882311F46E
:10F6C0009EE11CC0813011F091E018C098E916C08D
:10F6D000892F807591F0903539F4E0E0F0E089E011
:10F6E0008093570094910AC0983539F4E3E0F0E034
:10F6F00089E080935700949101C090E01A821B82A8
:10F700008D818C831D829E831F8227E030E009C299
:10F710001A8288E08B8381E48C8386E58D8382E581
:10F720008E8389E48F8383E5888780E589878FE5E9
:10F730008A8782E38B872BE030E0F3C18A818139AD
:10F7400041F0823941F0803911F48FE005C080E04A
:10F7500003C082E001C08AE01A828B8344C0772410
:10F76000739482C08D81882311F48EE12CC0813086
:10F7700011F081E028C088E926C01A82E1E0F0E0BB
:10F7800089E08093570084918B831C8224E030E0D1
:10F79000C8C18B81803589F48C81883039F4E2E0EE
:10F7A000F0E089E08093570084910DC0E0E0F0E044
